:100000000C942A000C9487030C94AE030C94D50333
:100010000C9447000C9447000C9447000C94470044
:100020000C9447000C94E1040C9443040C941C04BD
:100030000C9447000C9447000C9447000C94470024
:100040000C9447000C9447000C9447000C94470014
:100050000C94470011241FBECFE5D8E0DEBFCDBF12
:1000600010E0A0E6B0E0EAEBFEE002C005900D92E1
:10007000A63DB107D9F720E0A6EDB0E001C01D9282
:10008000A13EB207E1F70E9478010C945B070C9443
:100090000000CF93C82F88B3826088BB88B38B7F62
:1000A00088BBC4FF05C061E084E00E941B0204C05D
:1000B00060E084E00E941B02C5FF05C061E085E0AE
:1000C0000E941B0204C060E085E00E941B02C6FF84
:1000D00005C061E086E00E941B0204C060E086E08B
:1000E0000E941B02CC232CF461E087E00E941B02DB
:1000F00004C060E087E00E941B0288B3806488BB74
:1001000083E08A95F1F7000088B38F7B88BB82E497
:100110008A95F1F700C0C0FF05C061E084E00E944D
:100120001B0204C060E084E00E941B02C1FF05C006
:1001300061E085E00E941B0204C060E085E00E944F
:100140001B02C2FF05C061E086E00E941B0204C0E2
:1001500060E086E00E941B02C3FF05C061E087E00B
:100160000E941B0204C060E087E00E941B0288B36B
:10017000806488BB83E08A95F1F7000088B38F7BA9
:1001800088BB82E48A95F1F700C0CF910895CF93A0
:10019000C82F88B38D7F88BB88B38B7F88BBC4FF93
:1001A00005C061E084E00E941B0204C060E084E0BE
:1001B0000E941B02C5FF05C061E085E00E941B0292
:1001C00004C060E085E00E941B02C6FF05C061E03C
:1001D00086E00E941B0204C060E086E00E941B02D1
:1001E000CC232CF461E087E00E941B0204C060E095
:1001F00087E00E941B0288B3806488BB83E08A95F5
:10020000F1F7000088B38F7B88BB83EF91E0019703
:10021000F1F700C00000C0FF05C061E084E00E946B
:100220001B0204C060E084E00E941B02C1FF05C005
:1002300061E085E00E941B0204C060E085E00E944E
:100240001B02C2FF05C061E086E00E941B0204C0E1
:1002500060E086E00E941B02C3FF05C061E087E00A
:100260000E941B0204C060E087E00E941B0288B36A
:10027000806488BB93E09A95F1F7000088B38F7B88
:1002800088BB83EF91E00197F1F700C00000CF91A8
:1002900008958FE493EC0197F1F700C0000083E329
:1002A0000E94C70082E30E94C70088E20E94C70044
:1002B0008FE00E94C70086E00E94C70081E00E9494
:1002C000C70008950F931F93CF93DF938C01C0E075
:1002D000D0E003C00E9449002196F801EC0FFD1FF9
:1002E00080818111F7CFDF91CF911F910F910895F8
:1002F000CF93DF93CDB7DEB7A9970FB6F894DEBFE3
:100300000FBECDBF0E94A9020E94FE030E944901B8
:100310008FEF82BB86E90E94FC0389B7846089BFA6
:100320001FBC78948E01075F1F4F9E012F5F3F4FC8
:1003300040E050E060E070E080E090E00E946A04FD
:1003400029843A844B845C846D847E848F8498886D
:10035000A22CB32CC42CD52CE62CF72C082D192D4F
:1003600020E034E244EF50E060E070E080E090E0B4
:100370000E949806E22EF32E042F152F29813A8130
:100380004B815C816D817E818F8198850E949A0569
:100390006EA37FA388A799A7222D332D442D552D19
:1003A000662D772D882D992D0E949A059B01AC0111
:1003B0006EA17FA188A599A50E94F20420E030E0FB
:1003C00048EC52E40E9429062B013C012AE0AE01D0
:1003D0004F5E5F4F6E2D7F2D802F912F0E94000763
:1003E000C301B2010E946405DC01CB014AE0BE01F9
:1003F000615E7F4F0E94F50680E80E94C70087EB90
:1004000090E00E946201CE0141960E9462018EEB53
:1004100090E00E94620180EC0E94C70086EC90E0B0
:100420000E946201CE014F960E9462018DEC90E025
:100430000E94620177CF8830E8F4613069F44BB3F1
:1004400021E030E0B90102C0660F771F8A95E2F71C
:10045000CB01842B8BBB08954BB321E030E0B90175
:1004600002C0660F771F8A95E2F7CB01809584233F
:100470008BBB089598EF980F983008F5613079F4A8
:1004800048B390E0089721E030E0B90102C0660F60
:10049000771F8A95E2F7CB01842B88BB089548B378
:1004A00090E0089721E030E0B90102C0660F771FA5
:1004B0008A95E2F7CB018095842388BB089590EF5D
:1004C000980F983008F5613079F445B390E0409783
:1004D00021E030E0B90102C0660F771F8A95E2F78C
:1004E000CB01842B85BB089545B390E0409721E074
:1004F00030E0B90102C0660F771F8A95E2F7CB01A1
:100500008095842385BB089598EE980F983000F568
:10051000613079F442B390E0489721E030E0B901CE
:1005200002C0660F771F8A95E2F7CB01842B82BB4E
:10053000089542B390E0489721E030E0B90102C04D
:10054000660F771F8A95E2F7CB018095842382BBE3
:10055000089580E090E0D6C0FC01EE0FFF1FE80F89
:10056000F91FE05AFF4F20812130C9F138F02230C5
:1005700009F466C0233009F494C0C3C0FC01EE0F37
:10058000FF1FE80FF91FE05AFF4F2281213099F435
:100590004AB3FC01EE0FFF1FE80FF91FE05AFF4FAF
:1005A00021E030E0018002C0220F331F0A94E2F7FD
:1005B000242B2ABBA6C04AB3FC01EE0FFF1FE80F95
:1005C000F91FE05AFF4F21E030E0018002C0220F06
:1005D000331F0A94E2F7209524232ABB92C0FC0122
:1005E000EE0FFF1FE80FF91FE05AFF4F2281213065
:1005F00099F447B3FC01EE0FFF1FE80FF91FE05A13
:10060000FF4F21E030E0018002C0220F331F0A9427
:10061000E2F7242B27BB75C047B3FC01EE0FFF1F89
:10062000E80FF91FE05AFF4F21E030E0018002C0DF
:10063000220F331F0A94E2F72095242327BB61C0C1
:10064000FC01EE0FFF1FE80FF91FE05AFF4F228158
:10065000213099F444B3FC01EE0FFF1FE80FF91F9E
:10066000E05AFF4F21E030E0018002C0220F331F2B
:100670000A94E2F7242B24BB44C044B3FC01EE0FE0
:10068000FF1FE80FF91FE05AFF4F21E030E0018023
:1006900002C0220F331F0A94E2F72095242324BBC3
:1006A00030C0FC01EE0FFF1FE80FF91FE05AFF4FAB
:1006B0002281213099F441B3FC01EE0FFF1FE80FB6
:1006C000F91FE05AFF4F21E030E0018002C0220F05
:1006D000331F0A94E2F7242B21BB13C041B3FC0162
:1006E000EE0FFF1FE80FF91FE05AFF4F21E030E047
:1006F000018002C0220F331F0A94E2F720952423C1
:1007000021BB01968D31910508F426CF08951F92E3
:100710000F920FB60F9211242F933F934F935F9335
:100720006F937F938F939F93AF93BF93EF93FF93B9
:10073000E091DB00F091DC000995FF91EF91BF9112
:10074000AF919F918F917F916F915F914F913F9169
:100750002F910F900FBE0F901F9018951F920F9220
:100760000FB60F9211242F933F934F935F936F9384
:100770007F938F939F93AF93BF93EF93FF93E091FA
:10078000D700F091D8000995FF91EF91BF91AF91FB
:100790009F918F917F916F915F914F913F912F9199
:1007A0000F900FBE0F901F9018951F920F920FB6CB
:1007B0000F9211242F933F934F935F936F937F93E7
:1007C0008F939F93AF93BF93EF93FF93E091D900E3
:1007D000F091DA000995FF91EF91BF91AF919F9150
:1007E0008F917F916F915F914F913F912F910F90DA
:1007F0000FBE0F901F9018958CBF089512BE1CBE9F
:1008000083B7806483BF83B7877F83BF83B78F7EBF
:1008100083BF83B7806283BF83B7816083BF83B7A1
:10082000826083BF83B78B7F83BF89B78E7F89BF89
:1008300089B78D7F89BF08951F920F920FB60F92CF
:1008400011242F933F934F935F936F937F938F93D5
:100850009F93AF93BF93EF93FF93E091DD00F091EF
:10086000DE000995FF91EF91BF91AF919F918F911C
:100870007F916F915F914F913F912F910F900FBE9C
:100880000F901F9018951F920F920FB60F92112480
:100890002F933F934F935F936F937F938F939F9388
:1008A000AF93BF93EF93FF93E091DF00F091E000EF
:1008B0000995FF91EF91BF91AF919F918F917F919A
:1008C0006F915F914F913F912F910F900FBE0F90BD
:1008D0001F9018958F929F92AF92BF92CF92DF9206
:1008E000EF92FF920F931F93CF93DF9381E48EBD1E
:1008F00088B7806288BF08B605FEFDCF86B597B57C
:1009000081E08EBD1DBC1CBC1092D60080E288BF69
:1009100008B605FEFDCF66B577B581E48EBD88B714
:10092000806288BF08B605FEFDCF46B557B586B5CF
:1009300083B988B7806288BF1EBC8091D60090E0E2
:10094000A0E0B0E0DC0199278827860F971FA11D42
:10095000B11D4C015D01F90180839182A282B382B5
:1009600014821582168217828091D60090E0A0E052
:10097000B0E0DC0199278827840F951FA11DB11DC8
:100980004C015D01F80180839182A282B3821482BE
:10099000158216821782FFE32DE083E0F15020409C
:1009A0008040E1F700C00000DF91CF911F910F91CF
:1009B000FF90EF90DF90CF90BF90AF909F908F907F
:1009C00008951F920F920FB60F9211248F9380916A
:1009D000D6008F5F8093D6008F910F900FBE0F903F
:1009E0001F9018950E9406050C94EF050E94E805DB
:1009F00058F00E94E10540F029F45F3F29F00C9483
:100A0000D80551110C9423060C94DE050E940006B3
:100A100068F39923B1F3552391F3951B550BBB272D
:100A2000AA2762177307840738F09F5F5F4F220F72
:100A3000331F441FAA1FA9F335D00E2E3AF0E0E869
:100A400032D091505040E695001CCAF72BD0FE2FB3
:100A500029D0660F771F881FBB1F26173707480747
:100A6000AB07B0E809F0BB0B802DBF01FF279358FF
:100A70005F4F3AF09E3F510578F00C94D8050C94E6
:100A800023065F3FE4F3983ED4F386957795679508
:100A9000B795F7959F5FC9F7880F911D9695879534
:100AA00097F90895E1E0660F771F881FBB1F621753
:100AB00073078407BA0720F0621B730B840BBA0B11
:100AC000EE1F88F7E09508950E946B056894B111B8
:100AD0000C94230608950E94080688F09F5798F00A
:100AE000B92F9927B751B0F0E1F0660F771F881F33
:100AF000991F1AF0BA95C9F714C0B13091F00E944D
:100B00002206B1E008950C942206672F782F8827DB
:100B1000B85F39F0B93FCCF3869577956795B39573
:100B2000D9F73EF490958095709561957F4F8F4FE2
:100B30009F4F0895E894F92F96EBFF2381F012164A
:100B400013061406440B9395F6958795779567954C
:100B500057954040FF23B9F71BC099270895882374
:100B600051F49850D2F7872B762F652F542F432FAF
:100B7000322F20E0B1F3121613061406440B88231B
:100B80003AF09A95440F551F661F771F881FCAF7C2
:100B900055234AF4440F551F11F460FF04C06F5FE2
:100BA0007F4F8F4F9F4F880F9695879597F90895A0
:100BB00097F99F6780E870E060E008959FEF80EC10
:100BC000089500240A9416161706180609060895B3
:100BD00000240A9412161306140605060895092E19
:100BE0000394000C11F4882352F0BB0F40F4BF2B88
:100BF00011F460FF04C06F5F7F4F8F4F9F4F0895C8
:100C000057FD9058440F551F59F05F3F71F04795BD
:100C1000880F97FB991F61F09F3F79F087950895A2
:100C2000121613061406551FF2CF4695F1DF08C0C1
:100C3000161617061806991FF1CF869571056105DE
:100C400008940895E894BB2766277727CB0197F986
:100C500008950E943C060C94EF050E94E10538F0CF
:100C60000E94E80520F0952311F00C94D8050C940F
:100C7000DE0511240C9423060E94000670F3959F54
:100C8000C1F3950F50E0551F629FF001729FBB2783
:100C9000F00DB11D639FAA27F00DB11DAA1F649F1F
:100CA0006627B00DA11D661F829F2227B00DA11DD2
:100CB000621F739FB00DA11D621F839FA00D611D58
:100CC000221F749F3327A00D611D231F849F600D79
:100CD000211D822F762F6A2F11249F5750409AF0A2
:100CE000F1F088234AF0EE0FFF1FBB1F661F771F2E
:100CF000881F91505040A9F79E3F510580F00C94F9
:100D0000D8050C9423065F3FE4F3983ED4F3869510
:100D100077956795B795F795E7959F5FC1F7FE2B98
:100D2000880F911D9695879597F90895689401C04D
:100D3000E8948F929F92CF93DF930E94A406DF9155
:100D4000CF919F908F90089588249924F401E40115
:100D5000B0E49F93AA279A158B049C04ED05FE0529
:100D6000CF05D007A10798F4AD2FDC2FCF2FFE2F92
:100D7000E92D982C892E982F872F762F652F542FA9
:100D8000432F322F2227B85031F7BF9127C01B2E97
:100D9000BF91BB27220F331F441F551F661F771FAC
:100DA000881F991F881C991CEE1FFF1FCC1FDD1F79
:100DB000AA1FBB1F8A149B04EC05FD05CE05DF05A9
:100DC000A007B10748F08A189B08EC09FD09CE0975
:100DD000DF09A00BB10B21601A94E1F62EF4940107
:100DE000AF01BE01CD01000C0895BB274A3031F49C
:100DF000992322F4BDE2909581959F4F0C94320780
:100E0000BB272A3051F4992342F4BDE29095809596
:100E1000709561957F4F8F4F9F4F0C941007BB27A4
:100E2000FA01A62F6217710581059105330B30FB7E
:100E300066F0AA27660F771F881F991FAA1FA2179F
:100E400010F0A21B63953850A9F7A05DAA3308F0F3
:100E5000A95DA19336F7B111B1931082CA010C9428
:100E60004B07BB27FB015527AA27880F991FAA1FED
:100E7000A41710F0A41B83955051B9F7A05DAA33B5
:100E800008F0A95DA193009779F7B111B193119280
:100E9000CB010C944B07DC01FC01672F7191772388
:100EA000E1F7329704C07C916D9370836291AE1725
:0A0EB000BF07C8F30895F894FFCFC0
:100EBA000300010301010302010303010304010307
:100ECA0005010306000307010001000002000007F4
:100EDA0001000601000501000401010301010201EC
:100EEA0001010101040001050001060101070002D8
:100EFA0000010201010202010203010204010205CA
:100F0A0001020601020701467265713A2000204873
:100F1A007A2020202000447574793A200020252068
:060F2A0020202020200021
:00000001FF
